:100000000C945D000C9485000C9485000C94850084
:100010000C9485000C9485000C9485000C9485004C
:100020000C9485000C9485000C9485000C9485003C
:100030000C9485000C9485000C9485000C9485002C
:100040000C9471020C9485000C94E1020C94BB0298
:100050000C9485000C9485000C9485000C9485000C
:100060000C9485000C94850000000008000201003B
:100070000003040700000000000000000000000072
:10008000250028002B0000000000240027002A0083
:10009000040404040404040402020202020203032E
:1000A0000303030301020408102040800102040836
:1000B0001020010204081020130311241FBECFEFEB
:1000C000D8E0DEBFCDBF11E0A0E0B1E0EEEEFBE096
:1000D00002C005900D92A83CB107D9F722E0A8EC28
:1000E000B1E001C01D92AD38B207E1F710E0CDE5F7
:1000F000D0E004C02197FE010E94DB05CC35D1077A
:10010000C9F70E9444030C94F5050C94000090E09C
:10011000FC01EC55FF4F2491FC01E057FF4F849107
:10012000882399F090E0880F991FFC01EA57FF4F50
:10013000A591B491FC01E458FF4F859194918FB73C
:10014000F894EC91E22BEC938FBF089590E0FC01C2
:10015000E859FF4F3491FC01EC55FF4F2491FC010D
:10016000E057FF4FE491EE2309F43BC0332339F10C
:10017000333091F038F43130A9F0323001F584B5E4
:100180008F7D12C0373091F03830A1F03430B9F49F
:10019000809180008F7D03C0809180008F77809355
:1001A00080000DC084B58F7784BD09C08091B000F8
:1001B0008F7703C08091B0008F7D8093B000F0E016
:1001C000EE0FFF1FE458FF4FA591B4918FB7F8943D
:1001D000EC91611103C020952E2301C02E2B2C938E
:1001E0008FBF08953FB7F8948091E9019091EA019B
:1001F000A091EB01B091EC0126B5A89B05C02F3F63
:1002000019F00196A11DB11D3FBFBA2FA92F982F3C
:100210008827820F911DA11DB11DBC01CD0142E0B7
:10022000660F771F881F991F4A95D1F70895FC0123
:10023000538D448D252F30E0842F90E0821B930B4B
:10024000541710F0CF96089501970895FC01918DF1
:10025000828D981761F0828DDF01A80FB11D5D9628
:100260008C91928D9F5F9F73928F90E008958FEF96
:100270009FEF0895FC01918D828D981731F0828D4A
:10028000E80FF11D858D90E008958FEF9FEF0895A1
:10029000FC01918D228D892F90E0805C9F4F821B05
:1002A00091098F7399270895FC01848DDF01A80FB0
:1002B000B11DA35ABF4F2C91848D90E001968F738E
:1002C0009927848FA689B7892C93A089B1898C91AD
:1002D00080648C93938D848D981306C00288F38973
:1002E000E02D80818F7D80830895EF92FF920F93A0
:1002F0001F93CF93DF93EC0181E0888F9B8D8C8DD2
:10030000981305C0E889F989808185FD24C0F62EFF
:100310000B8D10E00F5F1F4F0F731127E02E8C8D98
:10032000E8120CC00FB607FCFACFE889F989808182
:1003300085FFF5CFCE010E945401F1CF8B8DFE01D8
:10034000E80FF11DE35AFF4FF0820B8FEA89FB891A
:100350008081806207C0EE89FF896083E889F9891E
:1003600080818064808381E090E0DF91CF911F9154
:100370000F91FF90EF900895CF93DF93EC01888D5C
:100380008823C9F0EA89FB89808185FD05C0A88999
:10039000B9898C9186FD0FC00FB607FCF5CF80811F
:1003A00085FFF2CFA889B9898C9185FFEDCFCE0169
:1003B0000E945401E7CFDF91CF9108958DEE91E037
:1003C0000E94480121E0892B09F420E0822F089542
:1003D00080E090E0892B29F00E94DE0181110C94CD
:1003E00000000895CF92DF92EF92FF920F931F9338
:1003F000CF93DF936C017A018B01C0E0D0E0CE1582
:10040000DF0589F0D8016D918D01D601ED91FC9148
:100410000190F081E02DC6010995892B11F47E0130
:1004200002C02196ECCFC701DF91CF911F910F91B0
:10043000FF90EF90DF90CF900895089580E090E0D6
:1004400008958EBD0DB407FEFDCF8EB508950F93B0
:100450001F93CF93DF93082F162FCAE8D2E060E0F6
:100460008A810E94A600802F0E942102812F0E9473
:10047000210261E08A81DF91CF911F910F910C944D
:10048000A600EF92FF920F931F93CF93DF931F92DB
:10049000CDB7DEB7082F162F60E080918C027983EC
:1004A0000E94A600802F0E942102E12E7981F72E62
:1004B00087010B5F1F4FF70181917F010E9421028D
:1004C000E016F106C1F761E080918C020F90DF9198
:1004D000CF911F910F91FF90EF900C94A6000E9476
:1004E000F0051F920F920FB60F9211242F933F9396
:1004F0008F939F93AF93BF938091E5019091E60115
:10050000A091E701B091E8013091E40123E0230FCD
:100510002D3720F40196A11DB11D05C026E8230F3B
:100520000296A11DB11D2093E4018093E5019093F3
:10053000E601A093E701B093E8018091E901909171
:10054000EA01A091EB01B091EC010196A11DB11D52
:100550008093E9019093EA01A093EB01B093EC0141
:10056000BF91AF919F918F913F912F910F900FBEAF
:100570000F901F9018951F920F920FB60F92112493
:100580002F933F934F935F936F937F938F939F939B
:10059000AF93BF93EF93FF938DEE91E00E945401D0
:1005A000FF91EF91BF91AF919F918F917F916F914B
:1005B0005F914F913F912F910F900FBE0F901F9021
:1005C00018951F920F920FB60F9211242F938F93AD
:1005D0009F93EF93FF93E091FD01F091FE018081E5
:1005E000E0910302F091040282FD12C0908180919B
:1005F00006028F5F8F7320910702821751F0E091FE
:100600000602F0E0E351FE4F958F8093060201C091
:100610008081FF91EF919F918F912F910F900FBE4D
:100620000F901F901895EDEEF1E01382128288EE84
:1006300093E0A0E0B0E084839583A683B7838AEB40
:1006400091E09183808385EC90E09587848784ECAA
:1006500090E09787868780EC90E0918B808B81EC8F
:1006600090E0938B828B82EC90E0958B848B86EC70
:1006700090E0978B868B118E128E138E148E1092B3
:100680008B0210928A020895CF93DF93CDB7DEB725
:1006900028970FB6F894DEBF0FBECDBF789484B50F
:1006A000826084BD84B5816084BD85B5826085BD6E
:1006B00085B5816085BD80916E00816080936E00FC
:1006C00010928100809181008260809381008091EE
:1006D000810081608093810080918000816080939F
:1006E00080008091B10084608093B1008091B0005F
:1006F00081608093B00080917A00846080937A005A
:1007000080917A00826080937A0080917A00816083
:1007100080937A0080917A00806880937A001092AA
:10072000C100E091FD01F091FE0182E08083E09143
:10073000F901F091FA011082E091FB01F091FC01C6
:1007400080E1808310920502E0910102F0910202A3
:1007500086E08083E091FF01F0910002808180615A
:100760008083E091FF01F0910002808188608083A6
:10077000E091FF01F0910002808180688083E09128
:10078000FF01F091000280818F7D80838AE0809359
:100790008C020E94870061E08AE00E94A6008AE045
:1007A0000E9487008CB580618CBD8CB580648CBD47
:1007B0008DE00E9487008BE00E9487008CB58062EC
:1007C0008CBD8CB5837F8CBD8CB58C7F82608CBDDD
:1007D0008DB581608DBD10928B0210928A0210EC53
:1007E00063E0812F0E9427021F5F103DC9F760EF71
:1007F00080EA0E94270260EF81EA0E94270260EFF0
:1008000084EE0E9427026FE080EE0E94270260E0E3
:1008100088EE0E9427020E94F2004B015C0158EE14
:10082000C52E53E0D52EE12CF12C0E94F200DC0104
:10083000CB0188199909AA09BB09883E9340A105F3
:10084000B10558F021E0C21AD108E108F10838EEEC
:10085000830E33E0931EA11CB11CC114D104E1042A
:10086000F10419F761EB71E081E40E94410262E05A
:1008700071E082E40E94410268EC84EE0E9427024B
:100880006CE380EA0E94270260EF81EA0E9427025F
:1008900022242394312C02E08FE128EC31E0821BEA
:1008A0008D834091E0015091E1016091E2017091EE
:1008B000E3018090DC019090DD01A090DE01B0901A
:1008C000DF01411534E053076105710568F08114BB
:1008D0009104A104B10441F41092010110920001AD
:1008E0003092DB012092DA01811484E09806A104A1
:1008F000B10470F0411594E059076105710508F4E1
:100900001CC1EFEFFFEFF0930101E09300010EC077
:10091000411551056105710569F481149104A10423
:10092000B10441F430920101209200011092DB01E8
:100930001092DA018091000190910101092E000CC2
:10094000AA0BBB0B9A01AB01280F391F4A1F5B1F73
:100950002093E0013093E1014093E2015093E301E1
:100960008091DA019091DB016C01990FEE08FF088C
:10097000C80CD91CEA1CFB1CC092DC01D092DD0122
:10098000E092DE01F092DF01A0E5B0E00E94D00528
:100990002B013C01A70196010E94D0052AE0769424
:1009A0006794579447942A95D1F74B015C013AE03C
:1009B000B694A794979487943A95D1F7C301B2015E
:1009C00025E030E040E050E00E94AE0528876B0152
:1009D0007C012F83C501B40125E030E040E050E008
:1009E0000E94AE0569837A838B839C83122F36E045
:1009F0004316510461047104B8F486E0881691042A
:100A0000A104B104B8F5642D660F460E440C95E0C0
:100A1000499EB00111246E5F7E4F82E40E94410224
:100A20000093C80121E06CC084149504A604B704A7
:100A300008F58981825E15E0189FB00111246E5F70
:100A40007E4F82E42E830E94410268E971E083E4D4
:100A50000E9441026C2D660FC60ECC0C1C9DB0018D
:100A600011246E5F7E4F84E40E9441022E812F8309
:100A7000188523C0EFEFCE1ADE0A6C2D660F6C0DC1
:100A8000660F615095E0F92EF69EB00111246E5F5D
:100A90007E4F82E40E9441026BE171E083E40E9498
:100AA000410229813A81F29EB001F39E700D11241A
:100AB0006E5F7E4F84E40E944102E8ECF1E08E2FED
:100AC00028EC31E0821B3F81831718F431E0319329
:100AD000F6CF3F5FEF818E2F90E088539E4FFC0151
:100AE000008321E0230F832F90E0FC01E853FE4FA9
:100AF000311720F433E03083322FF3CF34E03083EA
:100B0000822F90E0FC01E853FE4F213120F480E277
:100B100080832F5FF5CF108288ECE82E81E0F82EDD
:100B2000F70161917F01662329F08D818E0D0E946E
:100B30002702F6CF0E94E801B4CE411551056105A8
:100B4000710509F0F7CE10920101109200012FEF0C
:100B50003FEF3093DB012093DA01ECCEA1E21A2EB5
:100B6000AA1BBB1BFD010DC0AA1FBB1FEE1FFF1F51
:100B7000A217B307E407F50720F0A21BB30BE40BA1
:100B8000F50B661F771F881F991F1A9469F76095E8
:100B90007095809590959B01AC01BD01CF010895A2
:100BA0000E94E105A59F900DB49F900DA49F800D1C
:100BB000911D11240895EE0FFF1F0590F491E02D73
:100BC0000994A29FB001B39FC001A39F700D811D26
:100BD0001124911DB29F700D811D1124911D089546
:0E0BE00081E090E0F8940C94F505F894FFCFB6
:100BEE0001000000000000070000000007070000E1
:100BFE000007070700000707070700070707070793
:100C0E0070000000007700000000770700000077FA
:100C1E0007070000770707070077070707077070B9
:100C2E0000000077700000007777000000777707EC
:100C3E000000777707070077770707077070700057
:100C4E00007770700000777770000077777700007C
:100C5E007777770700777777070770707070007770
:100C6E007070700077777070007777777000777795
:100C7E00777700777777770770707070707770700E
:100C8E007070777770707077777770707777777717
:100C9E00707777777777000000007501F201170102
:080CAE00BC01480126013A01D6
:00000001FF
